{
  "contractName": "Dex",
  "abi": [
    {
      "anonymous": false,
      "inputs": [
        {
          "indexed": true,
          "internalType": "address",
          "name": "previousOwner",
          "type": "address"
        },
        {
          "indexed": true,
          "internalType": "address",
          "name": "newOwner",
          "type": "address"
        }
      ],
      "name": "OwnershipTransferred",
      "type": "event"
    },
    {
      "inputs": [
        {
          "internalType": "bytes32",
          "name": "ticker",
          "type": "bytes32"
        },
        {
          "internalType": "address",
          "name": "tokenAddress",
          "type": "address"
        }
      ],
      "name": "addToken",
      "outputs": [],
      "stateMutability": "nonpayable",
      "type": "function"
    },
    {
      "inputs": [
        {
          "internalType": "address",
          "name": "",
          "type": "address"
        },
        {
          "internalType": "bytes32",
          "name": "",
          "type": "bytes32"
        }
      ],
      "name": "balances",
      "outputs": [
        {
          "internalType": "uint256",
          "name": "",
          "type": "uint256"
        }
      ],
      "stateMutability": "view",
      "type": "function"
    },
    {
      "inputs": [
        {
          "internalType": "uint256",
          "name": "amount",
          "type": "uint256"
        },
        {
          "internalType": "bytes32",
          "name": "ticker",
          "type": "bytes32"
        }
      ],
      "name": "deposit",
      "outputs": [],
      "stateMutability": "nonpayable",
      "type": "function"
    },
    {
      "inputs": [],
      "name": "depositEth",
      "outputs": [],
      "stateMutability": "payable",
      "type": "function"
    },
    {
      "inputs": [],
      "name": "nextOrderId",
      "outputs": [
        {
          "internalType": "uint256",
          "name": "",
          "type": "uint256"
        }
      ],
      "stateMutability": "view",
      "type": "function"
    },
    {
      "inputs": [
        {
          "internalType": "bytes32",
          "name": "",
          "type": "bytes32"
        },
        {
          "internalType": "uint256",
          "name": "",
          "type": "uint256"
        },
        {
          "internalType": "uint256",
          "name": "",
          "type": "uint256"
        }
      ],
      "name": "orderBook",
      "outputs": [
        {
          "internalType": "uint256",
          "name": "id",
          "type": "uint256"
        },
        {
          "internalType": "address",
          "name": "trader",
          "type": "address"
        },
        {
          "internalType": "enum Dex.Side",
          "name": "side",
          "type": "uint8"
        },
        {
          "internalType": "bytes32",
          "name": "ticker",
          "type": "bytes32"
        },
        {
          "internalType": "uint256",
          "name": "amount",
          "type": "uint256"
        },
        {
          "internalType": "uint256",
          "name": "price",
          "type": "uint256"
        },
        {
          "internalType": "uint256",
          "name": "filled",
          "type": "uint256"
        }
      ],
      "stateMutability": "view",
      "type": "function"
    },
    {
      "inputs": [],
      "name": "owner",
      "outputs": [
        {
          "internalType": "address",
          "name": "",
          "type": "address"
        }
      ],
      "stateMutability": "view",
      "type": "function"
    },
    {
      "inputs": [],
      "name": "renounceOwnership",
      "outputs": [],
      "stateMutability": "nonpayable",
      "type": "function"
    },
    {
      "inputs": [
        {
          "internalType": "uint256",
          "name": "",
          "type": "uint256"
        }
      ],
      "name": "tokenList",
      "outputs": [
        {
          "internalType": "bytes32",
          "name": "",
          "type": "bytes32"
        }
      ],
      "stateMutability": "view",
      "type": "function"
    },
    {
      "inputs": [
        {
          "internalType": "bytes32",
          "name": "",
          "type": "bytes32"
        }
      ],
      "name": "tokenMapping",
      "outputs": [
        {
          "internalType": "bytes32",
          "name": "ticker",
          "type": "bytes32"
        },
        {
          "internalType": "address",
          "name": "tokenAddress",
          "type": "address"
        }
      ],
      "stateMutability": "view",
      "type": "function"
    },
    {
      "inputs": [
        {
          "internalType": "address",
          "name": "newOwner",
          "type": "address"
        }
      ],
      "name": "transferOwnership",
      "outputs": [],
      "stateMutability": "nonpayable",
      "type": "function"
    },
    {
      "inputs": [
        {
          "internalType": "uint256",
          "name": "amount",
          "type": "uint256"
        },
        {
          "internalType": "bytes32",
          "name": "ticker",
          "type": "bytes32"
        }
      ],
      "name": "withdraw",
      "outputs": [],
      "stateMutability": "nonpayable",
      "type": "function"
    },
    {
      "inputs": [
        {
          "internalType": "uint256",
          "name": "amount",
          "type": "uint256"
        }
      ],
      "name": "withdrawEth",
      "outputs": [],
      "stateMutability": "nonpayable",
      "type": "function"
    },
    {
      "inputs": [
        {
          "internalType": "bytes32",
          "name": "ticker",
          "type": "bytes32"
        },
        {
          "internalType": "enum Dex.Side",
          "name": "side",
          "type": "uint8"
        }
      ],
      "name": "getOrderBook",
      "outputs": [
        {
          "components": [
            {
              "internalType": "uint256",
              "name": "id",
              "type": "uint256"
            },
            {
              "internalType": "address",
              "name": "trader",
              "type": "address"
            },
            {
              "internalType": "enum Dex.Side",
              "name": "side",
              "type": "uint8"
            },
            {
              "internalType": "bytes32",
              "name": "ticker",
              "type": "bytes32"
            },
            {
              "internalType": "uint256",
              "name": "amount",
              "type": "uint256"
            },
            {
              "internalType": "uint256",
              "name": "price",
              "type": "uint256"
            },
            {
              "internalType": "uint256",
              "name": "filled",
              "type": "uint256"
            }
          ],
          "internalType": "struct Dex.Order[]",
          "name": "",
          "type": "tuple[]"
        }
      ],
      "stateMutability": "view",
      "type": "function"
    },
    {
      "inputs": [
        {
          "internalType": "enum Dex.Side",
          "name": "side",
          "type": "uint8"
        },
        {
          "internalType": "bytes32",
          "name": "ticker",
          "type": "bytes32"
        },
        {
          "internalType": "uint256",
          "name": "amount",
          "type": "uint256"
        },
        {
          "internalType": "uint256",
          "name": "price",
          "type": "uint256"
        }
      ],
      "name": "createLimitOrder",
      "outputs": [],
      "stateMutability": "nonpayable",
      "type": "function"
    },
    {
      "inputs": [
        {
          "internalType": "enum Dex.Side",
          "name": "side",
          "type": "uint8"
        },
        {
          "internalType": "bytes32",
          "name": "ticker",
          "type": "bytes32"
        },
        {
          "internalType": "uint256",
          "name": "amount",
          "type": "uint256"
        }
      ],
      "name": "createMarketOrder",
      "outputs": [],
      "stateMutability": "nonpayable",
      "type": "function"
    }
  ],
  "bytecode": "0x608060405260006004553480156200001657600080fd5b50620000376200002b6200003d60201b60201c565b6200004560201b60201c565b62000109565b600033905090565b60008060009054906101000a900473ffffffffffffffffffffffffffffffffffffffff169050816000806101000a81548173ffffffffffffffffffffffffffffffffffffffff021916908373ffffffffffffffffffffffffffffffffffffffff1602179055508173ffffffffffffffffffffffffffffffffffffffff168173ffffffffffffffffffffffffffffffffffffffff167f8be0079c531659141344cd1fd0a4f28419497f9722a3daafe3b4186f6b6457e060405160405180910390a35050565b61310180620001196000396000f3fe6080604052600436106100f35760003560e01c80639776aacf1161008a578063ba58ea6811610059578063ba58ea681461030e578063c311d0491461034b578063c9630cb014610374578063f2fde38b1461039d576100f3565b80639776aacf1461025657806399ec2f1c1461027f5780639ead7222146102a8578063a8d2021a146102e5576100f3565b8063667cb4ba116100c6578063667cb4ba146101ad5780636f3b62f9146101eb578063715018a6146102145780638da5cb5b1461022b576100f3565b80630bb431b6146100f85780631f14df691461013b5780632a58b33014610178578063439370b1146101a3575b600080fd5b34801561010457600080fd5b5061011f600480360381019061011a919061254a565b6103c6565b6040516101329796959493929190612673565b60405180910390f35b34801561014757600080fd5b50610162600480360381019061015d919061270e565b61045f565b60405161016f919061274e565b60405180910390f35b34801561018457600080fd5b5061018d610484565b60405161019a919061274e565b60405180910390f35b6101ab61048a565b005b3480156101b957600080fd5b506101d460048036038101906101cf9190612769565b610513565b6040516101e2929190612796565b60405180910390f35b3480156101f757600080fd5b50610212600480360381019061020d91906127e4565b610557565b005b34801561022057600080fd5b50610229611003565b005b34801561023757600080fd5b5061024061108b565b60405161024d919061284b565b60405180910390f35b34801561026257600080fd5b5061027d60048036038101906102789190612866565b6110b4565b005b34801561028b57600080fd5b506102a660048036038101906102a191906128a6565b6111ef565b005b3480156102b457600080fd5b506102cf60048036038101906102ca91906128f9565b611c39565b6040516102dc9190612926565b60405180910390f35b3480156102f157600080fd5b5061030c60048036038101906103079190612941565b611c5d565b005b34801561031a57600080fd5b5061033560048036038101906103309190612981565b611e82565b6040516103429190612b3a565b60405180910390f35b34801561035757600080fd5b50610372600480360381019061036d91906128f9565b611fdb565b005b34801561038057600080fd5b5061039b60048036038101906103969190612941565b612181565b005b3480156103a957600080fd5b506103c460048036038101906103bf9190612b5c565b612315565b005b600560205282600052604060002060205281600052604060002081815481106103ee57600080fd5b906000526020600020906006020160009250925050508060000154908060010160009054906101000a900473ffffffffffffffffffffffffffffffffffffffff16908060010160149054906101000a900460ff16908060020154908060030154908060040154908060050154905087565b6003602052816000526040600020602052806000526040600020600091509150505481565b60045481565b34600360003373ffffffffffffffffffffffffffffffffffffffff1673ffffffffffffffffffffffffffffffffffffffff16815260200190815260200160002060007f45544800000000000000000000000000000000000000000000000000000000008152602001908152602001600020600082825461050a9190612bb8565b92505081905550565b60016020528060005260406000206000915090508060000154908060010160009054906101000a900473ffffffffffffffffffffffffffffffffffffffff16905082565b6000600181111561056b5761056a6125ed565b5b84600181111561057e5761057d6125ed565b5b14156106475780826105909190612c0e565b600360003373ffffffffffffffffffffffffffffffffffffffff1673ffffffffffffffffffffffffffffffffffffffff16815260200190815260200160002060007f45544800000000000000000000000000000000000000000000000000000000008152602001908152602001600020541015610642576040517f08c379a000000000000000000000000000000000000000000000000000000000815260040161063990612cc5565b60405180910390fd5b610708565b60018081111561065a576106596125ed565b5b84600181111561066d5761066c6125ed565b5b14156107075781600360003373ffffffffffffffffffffffffffffffffffffffff1673ffffffffffffffffffffffffffffffffffffffff1681526020019081526020016000206000858152602001908152602001600020541015610706576040517f08c379a00000000000000000000000000000000000000000000000000000000081526004016106fd90612cc5565b60405180910390fd5b5b5b6000600560008581526020019081526020016000206000866001811115610732576107316125ed565b5b81526020019081526020016000209050806040518060e0016040528060045481526020013373ffffffffffffffffffffffffffffffffffffffff168152602001876001811115610785576107846125ed565b5b8152602001868152602001858152602001848152602001600081525090806001815401808255809150506001900390600052602060002090600602016000909190919091506000820151816000015560208201518160010160006101000a81548173ffffffffffffffffffffffffffffffffffffffff021916908373ffffffffffffffffffffffffffffffffffffffff16021790555060408201518160010160146101000a81548160ff02191690836001811115610846576108456125ed565b5b0217905550606082015181600201556080820151816003015560a0820151816004015560c08201518160050155505060008082805490501161088957600061089b565b6001828054905061089a9190612ce5565b5b9050600060018111156108b1576108b06125ed565b5b8660018111156108c4576108c36125ed565b5b1415610c42575b6000811115610c3d578181815481106108e7576108e6612d19565b5b906000526020600020906006020160040154826001836109079190612ce5565b8154811061091857610917612d19565b5b906000526020600020906006020160040154111561093557610c3d565b6000826001836109459190612ce5565b8154811061095657610955612d19565b5b90600052602060002090600602016040518060e0016040529081600082015481526020016001820160009054906101000a900473ffffffffffffffffffffffffffffffffffffffff1673ffffffffffffffffffffffffffffffffffffffff1673ffffffffffffffffffffffffffffffffffffffff1681526020016001820160149054906101000a900460ff1660018111156109f4576109f36125ed565b5b6001811115610a0657610a056125ed565b5b81526020016002820154815260200160038201548152602001600482015481526020016005820154815250509050828281548110610a4757610a46612d19565b5b906000526020600020906006020183600184610a639190612ce5565b81548110610a7457610a73612d19565b5b9060005260206000209060060201600082015481600001556001820160009054906101000a900473ffffffffffffffffffffffffffffffffffffffff168160010160006101000a81548173ffffffffffffffffffffffffffffffffffffffff021916908373ffffffffffffffffffffffffffffffffffffffff1602179055506001820160149054906101000a900460ff168160010160146101000a81548160ff02191690836001811115610b2b57610b2a6125ed565b5b02179055506002820154816002015560038201548160030155600482015481600401556005820154816005015590505080838381548110610b6f57610b6e612d19565b5b90600052602060002090600602016000820151816000015560208201518160010160006101000a81548173ffffffffffffffffffffffffffffffffffffffff021916908373ffffffffffffffffffffffffffffffffffffffff16021790555060408201518160010160146101000a81548160ff02191690836001811115610bf957610bf86125ed565b5b0217905550606082015181600201556080820151816003015560a0820151816004015560c082015181600501559050508180610c3490612d48565b925050506108cb565b610fe3565b600180811115610c5557610c546125ed565b5b866001811115610c6857610c676125ed565b5b1415610fe2575b6000811115610fe157818181548110610c8b57610c8a612d19565b5b90600052602060002090600602016004015482600183610cab9190612ce5565b81548110610cbc57610cbb612d19565b5b9060005260206000209060060201600401541015610cd957610fe1565b600082600183610ce99190612ce5565b81548110610cfa57610cf9612d19565b5b90600052602060002090600602016040518060e0016040529081600082015481526020016001820160009054906101000a900473ffffffffffffffffffffffffffffffffffffffff1673ffffffffffffffffffffffffffffffffffffffff1673ffffffffffffffffffffffffffffffffffffffff1681526020016001820160149054906101000a900460ff166001811115610d9857610d976125ed565b5b6001811115610daa57610da96125ed565b5b81526020016002820154815260200160038201548152602001600482015481526020016005820154815250509050828281548110610deb57610dea612d19565b5b906000526020600020906006020183600184610e079190612ce5565b81548110610e1857610e17612d19565b5b9060005260206000209060060201600082015481600001556001820160009054906101000a900473ffffffffffffffffffffffffffffffffffffffff168160010160006101000a81548173ffffffffffffffffffffffffffffffffffffffff021916908373ffffffffffffffffffffffffffffffffffffffff1602179055506001820160149054906101000a900460ff168160010160146101000a81548160ff02191690836001811115610ecf57610ece6125ed565b5b02179055506002820154816002015560038201548160030155600482015481600401556005820154816005015590505080838381548110610f1357610f12612d19565b5b90600052602060002090600602016000820151816000015560208201518160010160006101000a81548173ffffffffffffffffffffffffffffffffffffffff021916908373ffffffffffffffffffffffffffffffffffffffff16021790555060408201518160010160146101000a81548160ff02191690836001811115610f9d57610f9c6125ed565b5b0217905550606082015181600201556080820151816003015560a0820151816004015560c082015181600501559050508180610fd890612d48565b92505050610c6f565b5b5b60046000815480929190610ff690612d72565b9190505550505050505050565b61100b61240d565b73ffffffffffffffffffffffffffffffffffffffff1661102961108b565b73ffffffffffffffffffffffffffffffffffffffff161461107f576040517f08c379a000000000000000000000000000000000000000000000000000000000815260040161107690612e07565b60405180910390fd5b6110896000612415565b565b60008060009054906101000a900473ffffffffffffffffffffffffffffffffffffffff16905090565b6110bc61240d565b73ffffffffffffffffffffffffffffffffffffffff166110da61108b565b73ffffffffffffffffffffffffffffffffffffffff1614611130576040517f08c379a000000000000000000000000000000000000000000000000000000000815260040161112790612e07565b60405180910390fd5b60405180604001604052808381526020018273ffffffffffffffffffffffffffffffffffffffff16815250600160008481526020019081526020016000206000820151816000015560208201518160010160006101000a81548173ffffffffffffffffffffffffffffffffffffffff021916908373ffffffffffffffffffffffffffffffffffffffff16021790555090505060028290806001815401808255809150506001900390600052602060002001600090919091909150555050565b600180811115611202576112016125ed565b5b836001811115611215576112146125ed565b5b14156112af5780600360003373ffffffffffffffffffffffffffffffffffffffff1673ffffffffffffffffffffffffffffffffffffffff16815260200190815260200160002060008481526020019081526020016000205410156112ae576040517f08c379a00000000000000000000000000000000000000000000000000000000081526004016112a590612e73565b60405180910390fd5b5b60008060018111156112c4576112c36125ed565b5b8460018111156112d7576112d66125ed565b5b14156112e657600190506112eb565b600090505b600060056000858152602001908152602001600020600083815260200190815260200160002090506000805b82805490508110801561132957508482105b156119e5576000828661133c9190612ce5565b9050600084838154811061135357611352612d19565b5b90600052602060002090600602016005015485848154811061137857611377612d19565b5b9060005260206000209060060201600301546113949190612ce5565b90506000828211156113a8578290506113ac565b8190505b80856113b89190612bb8565b9450808685815481106113ce576113cd612d19565b5b906000526020600020906006020160050160008282546113ee9190612bb8565b92505081905550600086858154811061140a57611409612d19565b5b906000526020600020906006020160040154826114279190612c0e565b90506000600181111561143d5761143c6125ed565b5b8b60018111156114505761144f6125ed565b5b141561173c5780600360003373ffffffffffffffffffffffffffffffffffffffff1673ffffffffffffffffffffffffffffffffffffffff16815260200190815260200160002060007f455448000000000000000000000000000000000000000000000000000000000081526020019081526020016000205410156114d357600080fd5b81600360003373ffffffffffffffffffffffffffffffffffffffff1673ffffffffffffffffffffffffffffffffffffffff16815260200190815260200160002060008c815260200190815260200160002060008282546115339190612bb8565b9250508190555080600360003373ffffffffffffffffffffffffffffffffffffffff1673ffffffffffffffffffffffffffffffffffffffff16815260200190815260200160002060007f4554480000000000000000000000000000000000000000000000000000000000815260200190815260200160002060008282546115ba9190612ce5565b9250508190555081600360008988815481106115d9576115d8612d19565b5b906000526020600020906006020160010160009054906101000a900473ffffffffffffffffffffffffffffffffffffffff1673ffffffffffffffffffffffffffffffffffffffff1673ffffffffffffffffffffffffffffffffffffffff16815260200190815260200160002060008c815260200190815260200160002060008282546116659190612ce5565b92505081905550806003600089888154811061168457611683612d19565b5b906000526020600020906006020160010160009054906101000a900473ffffffffffffffffffffffffffffffffffffffff1673ffffffffffffffffffffffffffffffffffffffff1673ffffffffffffffffffffffffffffffffffffffff16815260200190815260200160002060007f4554480000000000000000000000000000000000000000000000000000000000815260200190815260200160002060008282546117309190612bb8565b925050819055506119ce565b60018081111561174f5761174e6125ed565b5b8b6001811115611762576117616125ed565b5b14156119cd5781600360003373ffffffffffffffffffffffffffffffffffffffff1673ffffffffffffffffffffffffffffffffffffffff16815260200190815260200160002060008c815260200190815260200160002060008282546117c89190612ce5565b9250508190555080600360003373ffffffffffffffffffffffffffffffffffffffff1673ffffffffffffffffffffffffffffffffffffffff16815260200190815260200160002060007f45544800000000000000000000000000000000000000000000000000000000008152602001908152602001600020600082825461184f9190612bb8565b92505081905550816003600089888154811061186e5761186d612d19565b5b906000526020600020906006020160010160009054906101000a900473ffffffffffffffffffffffffffffffffffffffff1673ffffffffffffffffffffffffffffffffffffffff1673ffffffffffffffffffffffffffffffffffffffff16815260200190815260200160002060008c815260200190815260200160002060008282546118fa9190612bb8565b92505081905550806003600089888154811061191957611918612d19565b5b906000526020600020906006020160010160009054906101000a900473ffffffffffffffffffffffffffffffffffffffff1673ffffffffffffffffffffffffffffffffffffffff1673ffffffffffffffffffffffffffffffffffffffff16815260200190815260200160002060007f4554480000000000000000000000000000000000000000000000000000000000815260200190815260200160002060008282546119c59190612ce5565b925050819055505b5b5050505080806119dd90612d72565b915050611317565b505b60008280549050118015611a44575081600081548110611a0a57611a09612d19565b5b90600052602060002090600602016003015482600081548110611a3057611a2f612d19565b5b906000526020600020906006020160050154145b15611c315760005b60018380549050611a5d9190612ce5565b811015611b9e5782600182611a729190612bb8565b81548110611a8357611a82612d19565b5b9060005260206000209060060201838281548110611aa457611aa3612d19565b5b9060005260206000209060060201600082015481600001556001820160009054906101000a900473ffffffffffffffffffffffffffffffffffffffff168160010160006101000a81548173ffffffffffffffffffffffffffffffffffffffff021916908373ffffffffffffffffffffffffffffffffffffffff1602179055506001820160149054906101000a900460ff168160010160146101000a81548160ff02191690836001811115611b5b57611b5a6125ed565b5b0217905550600282015481600201556003820154816003015560048201548160040155600582015481600501559050508080611b9690612d72565b915050611a4c565b5081805480611bb057611baf612e93565b5b60019003818190600052602060002090600602016000808201600090556001820160006101000a81549073ffffffffffffffffffffffffffffffffffffffff02191690556001820160146101000a81549060ff02191690556002820160009055600382016000905560048201600090556005820160009055505090556119e7565b505050505050565b60028181548110611c4957600080fd5b906000526020600020016000915090505481565b80600073ffffffffffffffffffffffffffffffffffffffff166001600083815260200190815260200160002060010160009054906101000a900473ffffffffffffffffffffffffffffffffffffffff1673ffffffffffffffffffffffffffffffffffffffff161415611cce57600080fd5b82600360003373ffffffffffffffffffffffffffffffffffffffff1673ffffffffffffffffffffffffffffffffffffffff1681526020019081526020016000206000848152602001908152602001600020541015611d61576040517f08c379a0000000000000000000000000000000000000000000000000000000008152600401611d5890612f0e565b60405180910390fd5b82600360003373ffffffffffffffffffffffffffffffffffffffff1673ffffffffffffffffffffffffffffffffffffffff16815260200190815260200160002060008481526020019081526020016000206000828254611dc19190612ce5565b925050819055506001600083815260200190815260200160002060010160009054906101000a900473ffffffffffffffffffffffffffffffffffffffff1673ffffffffffffffffffffffffffffffffffffffff1663a9059cbb33856040518363ffffffff1660e01b8152600401611e39929190612f2e565b6020604051808303816000875af1158015611e58573d6000803e3d6000fd5b505050506040513d601f19601f82011682018060405250810190611e7c9190612f8f565b50505050565b6060600560008481526020019081526020016000206000836001811115611eac57611eab6125ed565b5b8152602001908152602001600020805480602002602001604051908101604052809291908181526020016000905b82821015611fcf57838290600052602060002090600602016040518060e0016040529081600082015481526020016001820160009054906101000a900473ffffffffffffffffffffffffffffffffffffffff1673ffffffffffffffffffffffffffffffffffffffff1673ffffffffffffffffffffffffffffffffffffffff1681526020016001820160149054906101000a900460ff166001811115611f8257611f816125ed565b5b6001811115611f9457611f936125ed565b5b815260200160028201548152602001600382015481526020016004820154815260200160058201548152505081526020019060010190611eda565b50505050905092915050565b80600360003373ffffffffffffffffffffffffffffffffffffffff1673ffffffffffffffffffffffffffffffffffffffff16815260200190815260200160002060007f4554480000000000000000000000000000000000000000000000000000000000815260200190815260200160002054101561208e576040517f08c379a000000000000000000000000000000000000000000000000000000000815260040161208590612e73565b60405180910390fd5b80600360003373ffffffffffffffffffffffffffffffffffffffff1673ffffffffffffffffffffffffffffffffffffffff16815260200190815260200160002060007f45544800000000000000000000000000000000000000000000000000000000008152602001908152602001600020600082825461210e9190612ce5565b925050819055503373ffffffffffffffffffffffffffffffffffffffff168160405161213990612fed565b60006040518083038185875af1925050503d8060008114612176576040519150601f19603f3d011682016040523d82523d6000602084013e61217b565b606091505b50505050565b80600073ffffffffffffffffffffffffffffffffffffffff166001600083815260200190815260200160002060010160009054906101000a900473ffffffffffffffffffffffffffffffffffffffff1673ffffffffffffffffffffffffffffffffffffffff1614156121f257600080fd5b82600360003373ffffffffffffffffffffffffffffffffffffffff1673ffffffffffffffffffffffffffffffffffffffff168152602001908152602001600020600084815260200190815260200160002060008282546122529190612bb8565b925050819055506001600083815260200190815260200160002060010160009054906101000a900473ffffffffffffffffffffffffffffffffffffffff1673ffffffffffffffffffffffffffffffffffffffff166323b872dd3330866040518463ffffffff1660e01b81526004016122cc93929190613002565b6020604051808303816000875af11580156122eb573d6000803e3d6000fd5b505050506040513d601f19601f8201168201806040525081019061230f9190612f8f565b50505050565b61231d61240d565b73ffffffffffffffffffffffffffffffffffffffff1661233b61108b565b73ffffffffffffffffffffffffffffffffffffffff1614612391576040517f08c379a000000000000000000000000000000000000000000000000000000000815260040161238890612e07565b60405180910390fd5b600073ffffffffffffffffffffffffffffffffffffffff168173ffffffffffffffffffffffffffffffffffffffff161415612401576040517f08c379a00000000000000000000000000000000000000000000000000000000081526004016123f8906130ab565b60405180910390fd5b61240a81612415565b50565b600033905090565b60008060009054906101000a900473ffffffffffffffffffffffffffffffffffffffff169050816000806101000a81548173ffffffffffffffffffffffffffffffffffffffff021916908373ffffffffffffffffffffffffffffffffffffffff1602179055508173ffffffffffffffffffffffffffffffffffffffff168173ffffffffffffffffffffffffffffffffffffffff167f8be0079c531659141344cd1fd0a4f28419497f9722a3daafe3b4186f6b6457e060405160405180910390a35050565b600080fd5b6000819050919050565b6124f1816124de565b81146124fc57600080fd5b50565b60008135905061250e816124e8565b92915050565b6000819050919050565b61252781612514565b811461253257600080fd5b50565b6000813590506125448161251e565b92915050565b600080600060608486031215612563576125626124d9565b5b6000612571868287016124ff565b935050602061258286828701612535565b925050604061259386828701612535565b9150509250925092565b6125a681612514565b82525050565b600073ffffffffffffffffffffffffffffffffffffffff82169050919050565b60006125d7826125ac565b9050919050565b6125e7816125cc565b82525050565b7f4e487b7100000000000000000000000000000000000000000000000000000000600052602160045260246000fd5b6002811061262d5761262c6125ed565b5b50565b600081905061263e8261261c565b919050565b600061264e82612630565b9050919050565b61265e81612643565b82525050565b61266d816124de565b82525050565b600060e082019050612688600083018a61259d565b61269560208301896125de565b6126a26040830188612655565b6126af6060830187612664565b6126bc608083018661259d565b6126c960a083018561259d565b6126d660c083018461259d565b98975050505050505050565b6126eb816125cc565b81146126f657600080fd5b50565b600081359050612708816126e2565b92915050565b60008060408385031215612725576127246124d9565b5b6000612733858286016126f9565b9250506020612744858286016124ff565b9150509250929050565b6000602082019050612763600083018461259d565b92915050565b60006020828403121561277f5761277e6124d9565b5b600061278d848285016124ff565b91505092915050565b60006040820190506127ab6000830185612664565b6127b860208301846125de565b9392505050565b600281106127cc57600080fd5b50565b6000813590506127de816127bf565b92915050565b600080600080608085870312156127fe576127fd6124d9565b5b600061280c878288016127cf565b945050602061281d878288016124ff565b935050604061282e87828801612535565b925050606061283f87828801612535565b91505092959194509250565b600060208201905061286060008301846125de565b92915050565b6000806040838503121561287d5761287c6124d9565b5b600061288b858286016124ff565b925050602061289c858286016126f9565b9150509250929050565b6000806000606084860312156128bf576128be6124d9565b5b60006128cd868287016127cf565b93505060206128de868287016124ff565b92505060406128ef86828701612535565b9150509250925092565b60006020828403121561290f5761290e6124d9565b5b600061291d84828501612535565b91505092915050565b600060208201905061293b6000830184612664565b92915050565b60008060408385031215612958576129576124d9565b5b600061296685828601612535565b9250506020612977858286016124ff565b9150509250929050565b60008060408385031215612998576129976124d9565b5b60006129a6858286016124ff565b92505060206129b7858286016127cf565b9150509250929050565b600081519050919050565b600082825260208201905092915050565b6000819050602082019050919050565b6129f681612514565b82525050565b612a05816125cc565b82525050565b612a1481612643565b82525050565b612a23816124de565b82525050565b60e082016000820151612a3f60008501826129ed565b506020820151612a5260208501826129fc565b506040820151612a656040850182612a0b565b506060820151612a786060850182612a1a565b506080820151612a8b60808501826129ed565b5060a0820151612a9e60a08501826129ed565b5060c0820151612ab160c08501826129ed565b50505050565b6000612ac38383612a29565b60e08301905092915050565b6000602082019050919050565b6000612ae7826129c1565b612af181856129cc565b9350612afc836129dd565b8060005b83811015612b2d578151612b148882612ab7565b9750612b1f83612acf565b925050600181019050612b00565b5085935050505092915050565b60006020820190508181036000830152612b548184612adc565b905092915050565b600060208284031215612b7257612b716124d9565b5b6000612b80848285016126f9565b91505092915050565b7f4e487b7100000000000000000000000000000000000000000000000000000000600052601160045260246000fd5b6000612bc382612514565b9150612bce83612514565b9250827fffffffffffffffffffffffffffffffffffffffffffffffffffffffffffffffff03821115612c0357612c02612b89565b5b828201905092915050565b6000612c1982612514565b9150612c2483612514565b9250817fffffffffffffffffffffffffffffffffffffffffffffffffffffffffffffffff0483118215151615612c5d57612c5c612b89565b5b828202905092915050565b600082825260208201905092915050565b7f42616c616e636520746f6f206c6f770000000000000000000000000000000000600082015250565b6000612caf600f83612c68565b9150612cba82612c79565b602082019050919050565b60006020820190508181036000830152612cde81612ca2565b9050919050565b6000612cf082612514565b9150612cfb83612514565b925082821015612d0e57612d0d612b89565b5b828203905092915050565b7f4e487b7100000000000000000000000000000000000000000000000000000000600052603260045260246000fd5b6000612d5382612514565b91506000821415612d6757612d66612b89565b5b600182039050919050565b6000612d7d82612514565b91507fffffffffffffffffffffffffffffffffffffffffffffffffffffffffffffffff821415612db057612daf612b89565b5b600182019050919050565b7f4f776e61626c653a2063616c6c6572206973206e6f7420746865206f776e6572600082015250565b6000612df1602083612c68565b9150612dfc82612dbb565b602082019050919050565b60006020820190508181036000830152612e2081612de4565b9050919050565b7f496e7375666669656e742062616c616e63650000000000000000000000000000600082015250565b6000612e5d601283612c68565b9150612e6882612e27565b602082019050919050565b60006020820190508181036000830152612e8c81612e50565b9050919050565b7f4e487b7100000000000000000000000000000000000000000000000000000000600052603160045260246000fd5b7f42616c616e6365206973206e6f742073756666696369656e7400000000000000600082015250565b6000612ef8601983612c68565b9150612f0382612ec2565b602082019050919050565b60006020820190508181036000830152612f2781612eeb565b9050919050565b6000604082019050612f4360008301856125de565b612f50602083018461259d565b9392505050565b60008115159050919050565b612f6c81612f57565b8114612f7757600080fd5b50565b600081519050612f8981612f63565b92915050565b600060208284031215612fa557612fa46124d9565b5b6000612fb384828501612f7a565b91505092915050565b600081905092915050565b50565b6000612fd7600083612fbc565b9150612fe282612fc7565b600082019050919050565b6000612ff882612fca565b9150819050919050565b600060608201905061301760008301866125de565b61302460208301856125de565b613031604083018461259d565b949350505050565b7f4f776e61626c653a206e6577206f776e657220697320746865207a65726f206160008201527f6464726573730000000000000000000000000000000000000000000000000000602082015250565b6000613095602683612c68565b91506130a082613039565b604082019050919050565b600060208201905081810360008301526130c481613088565b905091905056fea26469706673582212200d5643b13a3a9d04a126b19840bfe866d2479ae6d2bb0635c43f7f1fed9edf0f64736f6c634300080b0033",
  "immutableReferences": {},
  "source": "pragma solidity ^0.8.0;\r\npragma experimental ABIEncoderV2;\r\n\r\nimport \"./wallet.sol\";\r\n\r\ncontract Dex is Wallet {\r\n\r\n    enum Side {\r\n        BUY,\r\n        SELL\r\n    }\r\n\r\n    struct Order {\r\n        uint id;\r\n        address trader;\r\n        Side side;\r\n        bytes32 ticker;\r\n        uint amount;\r\n        uint price;\r\n        uint filled;\r\n    }\r\n\r\n    uint public nextOrderId = 0;\r\n\r\n    mapping(bytes32 => mapping(uint => Order[])) public orderBook;\r\n\r\n    function getOrderBook(bytes32 ticker, Side side) view public returns(Order[] memory){\r\n        return orderBook[ticker][uint(side)];\r\n    }\r\n\r\n    function createLimitOrder(Side side, bytes32 ticker, uint amount, uint price) public{\r\n        if(side == Side.BUY){\r\n            require(balances[msg.sender][\"ETH\"] >= amount * price, \"Balance too low\");\r\n        } //buy LINK using ETH\r\n        else if(side == Side.SELL){\r\n            require(balances[msg.sender][ticker] >= amount, \"Balance too low\");\r\n        } //sell LINK back to ETH\r\n\r\n        Order[] storage orders = orderBook[ticker][uint(side)]; //this is to store the orderBook mapping to orders array\r\n        orders.push(Order(nextOrderId, msg.sender, side, ticker, amount, price, 0)); //each new Order will be stored to orders array. filled is 0 here since we don't care for limit order, only for market (check below, where filled is only used for market order function)\r\n\r\n        //below if-elseif is for bubble sort\r\n        uint i = orders.length > 0 ? orders.length - 1 : 0;\r\n\r\n        if(side == Side.BUY){\r\n            while(i > 0){\r\n                if(orders[i - 1].price > orders[i].price) { //basically if the rightmost order is already the most expensive, then it \"breaks\" or stops. for example if the order[1] is $5 while order [2] is $3, it's already correct that $5 is more expensive than $3 and should be prioritized\r\n                    break;   \r\n                }\r\n                Order memory orderToMove = orders[i - 1]; //these 4 lines basically \"sort\" the order based on which one is the most expensive (the rightmost should be the highest buy order)\r\n                orders[i - 1] = orders[i];\r\n                orders[i] = orderToMove;\r\n                i--;\r\n            }\r\n        }\r\n        else if (side == Side.SELL){ //same logic as side BUY but in reverse since this is about sell\r\n            while(i > 0){\r\n                if(orders[i - 1].price < orders[i].price) {\r\n                    break;   \r\n                }\r\n                Order memory orderToMove = orders[i - 1];\r\n                orders[i - 1] = orders[i];\r\n                orders[i] = orderToMove;\r\n                i--;\r\n            }\r\n        }\r\n        nextOrderId++;\r\n\r\n    }\r\n\r\n    function createMarketOrder(Side side, bytes32 ticker, uint amount) public{\r\n        if(side == Side.SELL){\r\n            require(balances[msg.sender][ticker] >= amount, \"Insuffient balance\");\r\n        }\r\n\r\n        uint orderBookSide;\r\n        if (side == Side.BUY) {\r\n            orderBookSide = 1; //orderBookSide = 1 means sell orders, so the buy side is connected directly to sell orders\r\n        }\r\n        else {\r\n            orderBookSide = 0; //this is the opposite, if sell side = will be connected to buy orders (orderBookSide = 0)\r\n        }\r\n\r\n        Order[] storage orders = orderBook[ticker][orderBookSide]; //this is to store the orderBook mapping to orders array but from market orders\r\n    \r\n        uint totalFilled = 0; //since market order might take multiple orders to fill, we need to know totalFilled that the market order takes\r\n\r\n        for (uint256 i = 0; i < orders.length && totalFilled < amount; i++) {\r\n            uint leftToFill = amount - totalFilled; \r\n            uint availableToFill = orders[i].amount - orders[i].filled;\r\n            uint filled = 0; //filled order\r\n            \r\n            if (availableToFill > leftToFill) {\r\n                filled = leftToFill;\r\n            } else {\r\n                filled = availableToFill;\r\n            }\r\n\r\n            totalFilled += filled;\r\n            orders[i].filled += filled;\r\n            uint cost = filled * orders[i].price;\r\n\r\n            if (side == Side.BUY) {\r\n                //verify the buyer has enough ETH\r\n                require(balances[msg.sender][\"ETH\"] >= cost);\r\n                //msg.sender is the buyer\r\n                balances[msg.sender][ticker] += filled;\r\n                balances[msg.sender][\"ETH\"] -= cost;\r\n\r\n                balances[orders[i].trader][ticker] -= filled;\r\n                balances[orders[i].trader][\"ETH\"] += cost;\r\n            }   else if (side == Side.SELL) {\r\n                //msg.sender is the seller\r\n                balances[msg.sender][ticker] -= filled;\r\n                balances[msg.sender][\"ETH\"] += cost;\r\n\r\n                balances[orders[i].trader][ticker] += filled;\r\n                balances[orders[i].trader][\"ETH\"] -= cost;\r\n            }\r\n\r\n        }\r\n\r\n        //Loop through the orderbook and remove 100% filled orders\r\n        while(orders.length > 0 && orders[0].filled == orders[0].amount) {\r\n\r\n            for(uint256 i = 0; i < orders.length - 1; i++) {\r\n                orders[i] = orders[i + 1];\r\n            }\r\n            orders.pop();\r\n        }\r\n        //the while loop above basically removes all the orderbooks that are all filled by the market orders\r\n        //for example, if there are 2 orders that have the price of 1 ETH per token, and market order sweep out these 2 orders at the price of 1 ETH, the while loop will \"delete\" these 2 orders with the pop function and move up the next orders (with more expensive price) to the top of the orderbook. the while loop stops when there is no more order that get sweeped at once at the same price\r\n    }\r\n\r\n\r\n\r\n}",
  "sourcePath": "C:\\Users\\ntcv_\\OneDrive\\Github Desktop\\Moralis Academy - DEX Tutorials\\contracts\\dex.sol",
  "compiler": {
    "name": "solc",
    "version": "0.8.11+commit.d7f03943.Emscripten.clang"
  },
  "schemaVersion": "3.4.6",
  "updatedAt": "2022-03-15T22:13:58.055Z",
  "devdoc": {
    "kind": "dev",
    "methods": {
      "owner()": {
        "details": "Returns the address of the current owner."
      },
      "renounceOwnership()": {
        "details": "Leaves the contract without owner. It will not be possible to call `onlyOwner` functions anymore. Can only be called by the current owner. NOTE: Renouncing ownership will leave the contract without an owner, thereby removing any functionality that is only available to the owner."
      },
      "transferOwnership(address)": {
        "details": "Transfers ownership of the contract to a new account (`newOwner`). Can only be called by the current owner."
      }
    },
    "version": 1
  },
  "userdoc": {
    "kind": "user",
    "methods": {},
    "version": 1
  }
}