{
  "contractName": "Wallet",
  "abi": [
    {
      "anonymous": false,
      "inputs": [
        {
          "indexed": true,
          "internalType": "address",
          "name": "previousOwner",
          "type": "address"
        },
        {
          "indexed": true,
          "internalType": "address",
          "name": "newOwner",
          "type": "address"
        }
      ],
      "name": "OwnershipTransferred",
      "type": "event"
    },
    {
      "inputs": [
        {
          "internalType": "address",
          "name": "",
          "type": "address"
        },
        {
          "internalType": "bytes32",
          "name": "",
          "type": "bytes32"
        }
      ],
      "name": "balances",
      "outputs": [
        {
          "internalType": "uint256",
          "name": "",
          "type": "uint256"
        }
      ],
      "stateMutability": "view",
      "type": "function"
    },
    {
      "inputs": [],
      "name": "owner",
      "outputs": [
        {
          "internalType": "address",
          "name": "",
          "type": "address"
        }
      ],
      "stateMutability": "view",
      "type": "function"
    },
    {
      "inputs": [],
      "name": "renounceOwnership",
      "outputs": [],
      "stateMutability": "nonpayable",
      "type": "function"
    },
    {
      "inputs": [
        {
          "internalType": "uint256",
          "name": "",
          "type": "uint256"
        }
      ],
      "name": "tokenList",
      "outputs": [
        {
          "internalType": "bytes32",
          "name": "",
          "type": "bytes32"
        }
      ],
      "stateMutability": "view",
      "type": "function"
    },
    {
      "inputs": [
        {
          "internalType": "bytes32",
          "name": "",
          "type": "bytes32"
        }
      ],
      "name": "tokenMapping",
      "outputs": [
        {
          "internalType": "bytes32",
          "name": "ticker",
          "type": "bytes32"
        },
        {
          "internalType": "address",
          "name": "tokenAddress",
          "type": "address"
        }
      ],
      "stateMutability": "view",
      "type": "function"
    },
    {
      "inputs": [
        {
          "internalType": "address",
          "name": "newOwner",
          "type": "address"
        }
      ],
      "name": "transferOwnership",
      "outputs": [],
      "stateMutability": "nonpayable",
      "type": "function"
    },
    {
      "inputs": [
        {
          "internalType": "bytes32",
          "name": "ticker",
          "type": "bytes32"
        },
        {
          "internalType": "address",
          "name": "tokenAddress",
          "type": "address"
        }
      ],
      "name": "addToken",
      "outputs": [],
      "stateMutability": "nonpayable",
      "type": "function"
    },
    {
      "inputs": [
        {
          "internalType": "uint256",
          "name": "amount",
          "type": "uint256"
        },
        {
          "internalType": "bytes32",
          "name": "ticker",
          "type": "bytes32"
        }
      ],
      "name": "deposit",
      "outputs": [],
      "stateMutability": "nonpayable",
      "type": "function"
    },
    {
      "inputs": [
        {
          "internalType": "uint256",
          "name": "amount",
          "type": "uint256"
        },
        {
          "internalType": "bytes32",
          "name": "ticker",
          "type": "bytes32"
        }
      ],
      "name": "withdraw",
      "outputs": [],
      "stateMutability": "nonpayable",
      "type": "function"
    },
    {
      "inputs": [],
      "name": "depositEth",
      "outputs": [],
      "stateMutability": "payable",
      "type": "function"
    },
    {
      "inputs": [
        {
          "internalType": "uint256",
          "name": "amount",
          "type": "uint256"
        }
      ],
      "name": "withdrawEth",
      "outputs": [],
      "stateMutability": "nonpayable",
      "type": "function"
    }
  ],
  "bytecode": "0x608060405234801561001057600080fd5b5061002d61002261003260201b60201c565b61003a60201b60201c565b6100fe565b600033905090565b60008060009054906101000a900473ffffffffffffffffffffffffffffffffffffffff169050816000806101000a81548173ffffffffffffffffffffffffffffffffffffffff021916908373ffffffffffffffffffffffffffffffffffffffff1602179055508173ffffffffffffffffffffffffffffffffffffffff168173ffffffffffffffffffffffffffffffffffffffff167f8be0079c531659141344cd1fd0a4f28419497f9722a3daafe3b4186f6b6457e060405160405180910390a35050565b6113358061010d6000396000f3fe60806040526004361061009c5760003560e01c80639776aacf116100645780639776aacf146101685780639ead722214610191578063a8d2021a146101ce578063c311d049146101f7578063c9630cb014610220578063f2fde38b146102495761009c565b80631f14df69146100a1578063439370b1146100de578063667cb4ba146100e8578063715018a6146101265780638da5cb5b1461013d575b600080fd5b3480156100ad57600080fd5b506100c860048036038101906100c39190610d30565b610272565b6040516100d59190610d89565b60405180910390f35b6100e6610297565b005b3480156100f457600080fd5b5061010f600480360381019061010a9190610da4565b610320565b60405161011d929190610def565b60405180910390f35b34801561013257600080fd5b5061013b610364565b005b34801561014957600080fd5b506101526103ec565b60405161015f9190610e18565b60405180910390f35b34801561017457600080fd5b5061018f600480360381019061018a9190610e33565b610415565b005b34801561019d57600080fd5b506101b860048036038101906101b39190610e9f565b610550565b6040516101c59190610ecc565b60405180910390f35b3480156101da57600080fd5b506101f560048036038101906101f09190610ee7565b610574565b005b34801561020357600080fd5b5061021e60048036038101906102199190610e9f565b610799565b005b34801561022c57600080fd5b5061024760048036038101906102429190610ee7565b61093f565b005b34801561025557600080fd5b50610270600480360381019061026b9190610f27565b610ad3565b005b6003602052816000526040600020602052806000526040600020600091509150505481565b34600360003373ffffffffffffffffffffffffffffffffffffffff1673ffffffffffffffffffffffffffffffffffffffff16815260200190815260200160002060007f4554480000000000000000000000000000000000000000000000000000000000815260200190815260200160002060008282546103179190610f83565b92505081905550565b60016020528060005260406000206000915090508060000154908060010160009054906101000a900473ffffffffffffffffffffffffffffffffffffffff16905082565b61036c610bcb565b73ffffffffffffffffffffffffffffffffffffffff1661038a6103ec565b73ffffffffffffffffffffffffffffffffffffffff16146103e0576040517f08c379a00000000000000000000000000000000000000000000000000000000081526004016103d790611036565b60405180910390fd5b6103ea6000610bd3565b565b60008060009054906101000a900473ffffffffffffffffffffffffffffffffffffffff16905090565b61041d610bcb565b73ffffffffffffffffffffffffffffffffffffffff1661043b6103ec565b73ffffffffffffffffffffffffffffffffffffffff1614610491576040517f08c379a000000000000000000000000000000000000000000000000000000000815260040161048890611036565b60405180910390fd5b60405180604001604052808381526020018273ffffffffffffffffffffffffffffffffffffffff16815250600160008481526020019081526020016000206000820151816000015560208201518160010160006101000a81548173ffffffffffffffffffffffffffffffffffffffff021916908373ffffffffffffffffffffffffffffffffffffffff16021790555090505060028290806001815401808255809150506001900390600052602060002001600090919091909150555050565b6002818154811061056057600080fd5b906000526020600020016000915090505481565b80600073ffffffffffffffffffffffffffffffffffffffff166001600083815260200190815260200160002060010160009054906101000a900473ffffffffffffffffffffffffffffffffffffffff1673ffffffffffffffffffffffffffffffffffffffff1614156105e557600080fd5b82600360003373ffffffffffffffffffffffffffffffffffffffff1673ffffffffffffffffffffffffffffffffffffffff1681526020019081526020016000206000848152602001908152602001600020541015610678576040517f08c379a000000000000000000000000000000000000000000000000000000000815260040161066f906110a2565b60405180910390fd5b82600360003373ffffffffffffffffffffffffffffffffffffffff1673ffffffffffffffffffffffffffffffffffffffff168152602001908152602001600020600084815260200190815260200160002060008282546106d891906110c2565b925050819055506001600083815260200190815260200160002060010160009054906101000a900473ffffffffffffffffffffffffffffffffffffffff1673ffffffffffffffffffffffffffffffffffffffff1663a9059cbb33856040518363ffffffff1660e01b81526004016107509291906110f6565b6020604051808303816000875af115801561076f573d6000803e3d6000fd5b505050506040513d601f19601f820116820180604052508101906107939190611157565b50505050565b80600360003373ffffffffffffffffffffffffffffffffffffffff1673ffffffffffffffffffffffffffffffffffffffff16815260200190815260200160002060007f4554480000000000000000000000000000000000000000000000000000000000815260200190815260200160002054101561084c576040517f08c379a0000000000000000000000000000000000000000000000000000000008152600401610843906111d0565b60405180910390fd5b80600360003373ffffffffffffffffffffffffffffffffffffffff1673ffffffffffffffffffffffffffffffffffffffff16815260200190815260200160002060007f4554480000000000000000000000000000000000000000000000000000000000815260200190815260200160002060008282546108cc91906110c2565b925050819055503373ffffffffffffffffffffffffffffffffffffffff16816040516108f790611221565b60006040518083038185875af1925050503d8060008114610934576040519150601f19603f3d011682016040523d82523d6000602084013e610939565b606091505b50505050565b80600073ffffffffffffffffffffffffffffffffffffffff166001600083815260200190815260200160002060010160009054906101000a900473ffffffffffffffffffffffffffffffffffffffff1673ffffffffffffffffffffffffffffffffffffffff1614156109b057600080fd5b82600360003373ffffffffffffffffffffffffffffffffffffffff1673ffffffffffffffffffffffffffffffffffffffff16815260200190815260200160002060008481526020019081526020016000206000828254610a109190610f83565b925050819055506001600083815260200190815260200160002060010160009054906101000a900473ffffffffffffffffffffffffffffffffffffffff1673ffffffffffffffffffffffffffffffffffffffff166323b872dd3330866040518463ffffffff1660e01b8152600401610a8a93929190611236565b6020604051808303816000875af1158015610aa9573d6000803e3d6000fd5b505050506040513d601f19601f82011682018060405250810190610acd9190611157565b50505050565b610adb610bcb565b73ffffffffffffffffffffffffffffffffffffffff16610af96103ec565b73ffffffffffffffffffffffffffffffffffffffff1614610b4f576040517f08c379a0000000000000000000000000000000000000000000000000000000008152600401610b4690611036565b60405180910390fd5b600073ffffffffffffffffffffffffffffffffffffffff168173ffffffffffffffffffffffffffffffffffffffff161415610bbf576040517f08c379a0000000000000000000000000000000000000000000000000000000008152600401610bb6906112df565b60405180910390fd5b610bc881610bd3565b50565b600033905090565b60008060009054906101000a900473ffffffffffffffffffffffffffffffffffffffff169050816000806101000a81548173ffffffffffffffffffffffffffffffffffffffff021916908373ffffffffffffffffffffffffffffffffffffffff1602179055508173ffffffffffffffffffffffffffffffffffffffff168173ffffffffffffffffffffffffffffffffffffffff167f8be0079c531659141344cd1fd0a4f28419497f9722a3daafe3b4186f6b6457e060405160405180910390a35050565b600080fd5b600073ffffffffffffffffffffffffffffffffffffffff82169050919050565b6000610cc782610c9c565b9050919050565b610cd781610cbc565b8114610ce257600080fd5b50565b600081359050610cf481610cce565b92915050565b6000819050919050565b610d0d81610cfa565b8114610d1857600080fd5b50565b600081359050610d2a81610d04565b92915050565b60008060408385031215610d4757610d46610c97565b5b6000610d5585828601610ce5565b9250506020610d6685828601610d1b565b9150509250929050565b6000819050919050565b610d8381610d70565b82525050565b6000602082019050610d9e6000830184610d7a565b92915050565b600060208284031215610dba57610db9610c97565b5b6000610dc884828501610d1b565b91505092915050565b610dda81610cfa565b82525050565b610de981610cbc565b82525050565b6000604082019050610e046000830185610dd1565b610e116020830184610de0565b9392505050565b6000602082019050610e2d6000830184610de0565b92915050565b60008060408385031215610e4a57610e49610c97565b5b6000610e5885828601610d1b565b9250506020610e6985828601610ce5565b9150509250929050565b610e7c81610d70565b8114610e8757600080fd5b50565b600081359050610e9981610e73565b92915050565b600060208284031215610eb557610eb4610c97565b5b6000610ec384828501610e8a565b91505092915050565b6000602082019050610ee16000830184610dd1565b92915050565b60008060408385031215610efe57610efd610c97565b5b6000610f0c85828601610e8a565b9250506020610f1d85828601610d1b565b9150509250929050565b600060208284031215610f3d57610f3c610c97565b5b6000610f4b84828501610ce5565b91505092915050565b7f4e487b7100000000000000000000000000000000000000000000000000000000600052601160045260246000fd5b6000610f8e82610d70565b9150610f9983610d70565b9250827fffffffffffffffffffffffffffffffffffffffffffffffffffffffffffffffff03821115610fce57610fcd610f54565b5b828201905092915050565b600082825260208201905092915050565b7f4f776e61626c653a2063616c6c6572206973206e6f7420746865206f776e6572600082015250565b6000611020602083610fd9565b915061102b82610fea565b602082019050919050565b6000602082019050818103600083015261104f81611013565b9050919050565b7f42616c616e6365206973206e6f742073756666696369656e7400000000000000600082015250565b600061108c601983610fd9565b915061109782611056565b602082019050919050565b600060208201905081810360008301526110bb8161107f565b9050919050565b60006110cd82610d70565b91506110d883610d70565b9250828210156110eb576110ea610f54565b5b828203905092915050565b600060408201905061110b6000830185610de0565b6111186020830184610d7a565b9392505050565b60008115159050919050565b6111348161111f565b811461113f57600080fd5b50565b6000815190506111518161112b565b92915050565b60006020828403121561116d5761116c610c97565b5b600061117b84828501611142565b91505092915050565b7f496e7375666669656e742062616c616e63650000000000000000000000000000600082015250565b60006111ba601283610fd9565b91506111c582611184565b602082019050919050565b600060208201905081810360008301526111e9816111ad565b9050919050565b600081905092915050565b50565b600061120b6000836111f0565b9150611216826111fb565b600082019050919050565b600061122c826111fe565b9150819050919050565b600060608201905061124b6000830186610de0565b6112586020830185610de0565b6112656040830184610d7a565b949350505050565b7f4f776e61626c653a206e6577206f776e657220697320746865207a65726f206160008201527f6464726573730000000000000000000000000000000000000000000000000000602082015250565b60006112c9602683610fd9565b91506112d48261126d565b604082019050919050565b600060208201905081810360008301526112f8816112bc565b905091905056fea26469706673582212204413577b8dab30d758fa5706f59e384757c952ecfb8a099163d370cb4e018df064736f6c634300080b0033",
  "immutableReferences": {},
  "source": "// SPDX-License-Identifier: MIT\r\npragma solidity ^0.8.0;\r\n\r\nimport \"@openzeppelin/contracts/token/ERC20/IERC20.sol\";\r\nimport '@openzeppelin/contracts/access/Ownable.sol';\r\n\r\ncontract Wallet is Ownable {\r\n\r\n    struct Token { //token that will be tradeable on the dex\r\n        bytes32 ticker;\r\n        address tokenAddress;\r\n    }\r\n\r\n    mapping(bytes32 => Token) public tokenMapping; //to find the token via the ticker\r\n    bytes32[] public tokenList; //array of the token tickers which is the token list\r\n\r\n    mapping(address => mapping(bytes32 => uint256)) public balances; //wallet address => token ticker (in bytes32) => the amount of balance\r\n\r\n    modifier tokenExist(bytes32 ticker) {\r\n        require(tokenMapping[ticker].tokenAddress != address(0)); //to make sure the token is not an empty token, but actually something that was deployed\r\n        _;\r\n    }\r\n\r\n    function addToken(bytes32 ticker, address tokenAddress) onlyOwner external {\r\n        tokenMapping[ticker] = Token(ticker, tokenAddress);\r\n        tokenList.push(ticker);\r\n    }\r\n    \r\n    function deposit(uint amount, bytes32 ticker) tokenExist(ticker) external {\r\n        balances[msg.sender][ticker] += amount; \r\n        IERC20(tokenMapping[ticker].tokenAddress).transferFrom(msg.sender, address(this), amount); //sending from the msg.sender to the smart contract\r\n    }\r\n\r\n\r\n    function withdraw(uint amount, bytes32 ticker) tokenExist(ticker) external {\r\n        require(balances[msg.sender][ticker] >= amount, \"Balance is not sufficient\");\r\n\r\n        balances[msg.sender][ticker] -= amount;\r\n        IERC20(tokenMapping[ticker].tokenAddress).transfer(msg.sender, amount); //withdrawing from this smart contract to the msg.sender\r\n    }\r\n\r\n    function depositEth() payable external {\r\n        balances[msg.sender][bytes32(\"ETH\")] += msg.value;\r\n    }\r\n    \r\n    function withdrawEth(uint amount) external {\r\n        require(balances[msg.sender][bytes32(\"ETH\")] >= amount,'Insuffient balance'); \r\n        balances[msg.sender][bytes32(\"ETH\")] -= amount;\r\n        msg.sender.call{value:amount}(\"\");\r\n    }\r\n\r\n\r\n\r\n}\r\n\r\n",
  "sourcePath": "C:\\Users\\ntcv_\\OneDrive\\Github Desktop\\Moralis Academy - DEX Tutorials\\contracts\\wallet.sol",
  "compiler": {
    "name": "solc",
    "version": "0.8.11+commit.d7f03943.Emscripten.clang"
  },
  "schemaVersion": "3.4.6",
  "updatedAt": "2022-03-15T22:13:58.088Z",
  "devdoc": {
    "kind": "dev",
    "methods": {
      "owner()": {
        "details": "Returns the address of the current owner."
      },
      "renounceOwnership()": {
        "details": "Leaves the contract without owner. It will not be possible to call `onlyOwner` functions anymore. Can only be called by the current owner. NOTE: Renouncing ownership will leave the contract without an owner, thereby removing any functionality that is only available to the owner."
      },
      "transferOwnership(address)": {
        "details": "Transfers ownership of the contract to a new account (`newOwner`). Can only be called by the current owner."
      }
    },
    "version": 1
  },
  "userdoc": {
    "kind": "user",
    "methods": {},
    "version": 1
  }
}